:1000000058C1000072C1000070C100006EC1000044
:100010006CC100006AC1000068C1000066C1000038
:1000200064C1000062C1000015C700005EC100008D
:100030005CC100005AC1000058C1000056C1000058
:1000400054C1000052C1000050C100004EC1000068
:100050004CC100004AC1000048C1000046C1000078
:1000600044C1000070C1000040C100003EC100005A
:100070003CC100003AC1000038C1000036C1000098
:1000800034C1000032C1000030C100002EC10000A8
:100090002CC100002AC1000028C1000026C10000B8
:1000A00024C1000022C1000020C100001708390847
:1000B0002509390825097E08A0082509F208040940
:1000C000120330003000330042004600300031009F
:1000D0004400000026035000440050002000480067
:1000E0006F006D0065002000530074006100670020
:1000F000650020004B006900740000003C035000C4
:100100006500720066006F0072006D0061006E0095
:10011000630065002000440065007300690067000B
:100120006E00650064002000500072006F006400E3
:1001300075006300740073000000040309041203D7
:100140004D00530046005400310030003000900054
:100150000000B203580062006F00780020005300D6
:10016000650063007500720069007400790020006A
:100170004D006500740068006F00640020003300CB
:100180002C002000560065007200730069006F00AB
:100190006E00200031002E00300030002C002000C6
:1001A000A9002000320030003000350020004D0052
:1001B0006900630072006F0073006F0066007400D6
:1001C000200043006F00720070006F007200610039
:1001D000740069006F006E002E00200041006C006A
:1001E0006C002000720069006700680074007300F2
:1001F00020007200650073006500720076006500E3
:1002000064002E00000009029900040100A0FA0910
:1002100004000002FF5D0100112110010925811475
:1002200003030304130208030307058103200004EA
:10023000070502032000080904010004FF5D030014
:100240001B210001010183400104201685000000EC
:1002500000000016050000000000000705830320D1
:100260000002070504032000040705850320004061
:10027000070505032000100904020001FF5D0200CC
:1002800009210001012286070007058603200010CE
:100290000904030000FFFD130406410001010312DD
:1002A000010002FFFFFF086F0E03010101010203BD
:1002B000010011241FBECFEFDAE0DEBFCDBF11E099
:1002C000A0E0B1E0E6E5F3E102C005900D92AE33A7
:1002D000B107D9F721E0AEE3B1E001C01D92AB3F19
:1002E000B207E1F709D20C94A9098ACE9B01AC01AF
:1002F000DC01CB01B695A79597958795BC01CD01FB
:1003000060587B47814E9F4FE3D72150310930938E
:10031000CD002093CC0086E08093CA0082E08093D9
:10032000C80088E18093C900539A5A9A0895F894B6
:1003300098E088E10FB6F894A895809360000FBE0E
:1003400090936000FFCF1F920F920FB60F9211246F
:100350002F933F934F935F936F937F938F939F93CD
:10036000AF93BF93EF93FF938091CE00809387016B
:1003700010928500109284008091C80087FF0BC006
:100380008091CE0080938601809187018F3F59F440
:100390002EEC31E00AC08091840090918500813775
:1003A000924050F306C12EE831E030938D01209346
:1003B0008C0180918B01909186018917B8F491E0AE
:1003C000980F90938B019091C80097FF07C0909170
:1003D000CE00F901E80FF11D9083EBCF409184002E
:1003E000509185004137524070F3E3C010928B0169
:1003F00080918701853509F4DCC0A8F4823209F4C4
:1004000052C018F48131D9F1D5C0833309F460C0EA
:10041000843409F0CFC081E080938501809186010A
:1004200080938401C7C0873709F4A6C0D0F486360C
:1004300009F0C0C080918E0190918F019827892783
:100440009827909341018093400180919001909171
:10045000910198278927982790933F0180933E0127
:10046000A9C0883809F44EC08F3F09F0A3C081E0CD
:1004700080938A0180918601809389019BC080913D
:10048000C80085FFFCCF81E18093CE008091C80039
:1004900085FFFCCF81E08093CE008091C80085FF6E
:1004A000FCCF8EEF83C08091C80085FFFCCF82E235
:1004B0008093CE008091C80085FFFCCF81E08093BF
:1004C000CE00809183019091C80095FFFCCF6EC053
:1004D0008091C80085FFFCCF83E38093CE0080919C
:1004E000C80085FFFCCF81E08093CE00809183011E
:1004F0009091C80095FFFCCF8093CE0081E080935F
:10050000880158C080918601882309F180918E016D
:10051000809322015B9A1092C9001092C800109239
:10052000CA001092CD001092CC0053985A98A09116
:100530002201B0E020EA36E841E050E0F1D6D6DE14
:100540005B988091C90080688093C90033C0809116
:10055000C80085FFFCCF88E88093CE008091C8005A
:1005600085FFFCCF81E08093CE00809122019091A5
:10057000C80095FFFCCF1AC08091C80085FFFCCF52
:1005800087E78093CE008091C80085FFFCCF82E092
:100590008093CE008091C80085FFFCCF88E08093D7
:1005A000CE008091C80085FFFCCF81E08093CE0013
:1005B00001C0BDDEFF91EF91BF91AF919F918F91EF
:1005C0007F916F915F914F913F912F910F900FBE4F
:1005D0000F901F90189514BE0FB6F894A8958091AF
:1005E0006000886180936000109260000FBE90E010
:1005F00080E80FB6F89480936100909361000FBE7D
:1006000080918100846080938100A0912201B0E0FC
:1006100020EA36E841E050E083D668DE8091C900E8
:1006200080688093C9007894809188018823E1F3E1
:10063000F4C30895089542E261EC81E027D342E2D9
:1006400060EC82E023C381E08093E90080918A011D
:10065000882399F08091E80080FF0FC060918901A4
:1006600070E040E050E08EEC91E07DD110928A0184
:100670008091E8008E778093E8000895CF93DF9310
:1006800000D0CDB7DEB782E08093E9008091E8002A
:1006900082FF26C01A821982109201018091E8001F
:1006A00085FF0FC0AE014F5F5F4F60E270E082E0F8
:1006B00091E0A3D1882311F0898101C080E2809369
:1006C00001018091E8008B778093E800609101013F
:1006D000662331F070E06E5F7F4F80E091E0E8D5F7
:1006E0000F900F90DF91CF9108958091F2018430A7
:1006F00011F4A9DFC3CF08956EDFF7DFBFD5FDCFBB
:10070000CF93DF93CDB7DEB764970FB6F894DEBF13
:100710000FBECDBF8091F30186FFBDC090918301D4
:10072000911167C087FD11C08091E800877F809399
:10073000E8006091F9017091FA0182E491E005D23C
:100740008091E8008E778093E80010928501809177
:10075000C80085FFFCCF84E48093CE008091F30134
:1007600087FF06C08091C80085FFFCCF88E007C0E6
:100770008091F901885F9091C80095FFFCCF80932C
:10078000CE0068E070E083EF91E092D58091F301B4
:1007900087FF27C0809185018823E1F38091E800DD
:1007A000877F8093E8006091840170E08EE891E09B
:1007B0006ED18091E8008B778093E8008091F501FD
:1007C0009091F60180319C4509F065C080918201CD
:1007D000882319F081E08093830181E08093820176
:1007E0005AC06091F9017091FA0182E491E060D5FC
:1007F00052C087FF3FC08091F5019091F60187318B
:100800009B4509F494DD8091E800877F8093E800A0
:100810008091F4018130F9F48091F30180FF0CC0E4
:1008200084E1E3E2F1E0DE01119601900D928A95F8
:10083000E1F764E170E017C08091370190913801D1
:10084000A0913901B0913A0189839A83AB83BC832B
:1008500064E070E008C0813A49F481E0898382E075
:100860008A8362E070E0CE01019611D18091E800A8
:100870008B770FC08091E800877F8093E8006091BC
:10088000F9017091FA0182E491E05FD18091E80072
:100890008E778093E80064960FB6F894DEBF0FBEA3
:1008A000CDBFDF91CF910895292F33272230310515
:1008B00061F02330310571F02130310509F04BC072
:1008C00082E190E02FE932E04AC089E990E026E039
:1008D00032E045C099278230910529F168F40097EC
:1008E000D1F0019709F037C0ECEFF0E0E4918E2FE2
:1008F00090E02CEF30E033C08430910521F1D8F046
:100900008E3E910541F5EEE3F1E0E4918E2F90E00B
:100910002EE331E024C0EAE3F1E0E4918E2F90E091
:100920002AE331E01CC0E4EDF0E0E4918E2F90E08A
:1009300024ED30E014C0E0ECF0E0E4918E2F90E084
:1009400020EC30E00CC0E2E5F1E0E4918E2F90E085
:1009500022E531E004C080E090E020E030E0FA01E0
:10096000318320830895CF92DF92EF92FF920F930D
:100970001F93CF93DF93EC018B017A01DBD18111BF
:1009800033C0E114F10439F0F70180819181081B33
:10099000190BC80FD91FC12CD12C0115110519F144
:1009A0008091E80085FD16C08091E8008E778093E5
:1009B000E80064D4E114F10449F0F70180819181E9
:1009C000C80ED91ED182C08285E00EC0B3D1882363
:1009D00021F30AC089918093F10001501109FFEFC2
:1009E000CF1ADF0ADACF80E0DF91CF911F910F910C
:1009F000FF90EF90DF90CF900895CF92DF92EF922B
:100A0000FF920F931F93CF93DF93EC018B017A0139
:100A100091D1811133C0E114F10439F0F7018081E3
:100A20009181081B190BC80FD91FC12CD12C01159E
:100A3000110519F18091E80085FD16C08091E8004C
:100A40008B778093E8001AD4E114F10449F0F701A0
:100A500080819181C80ED91ED182C08285E00EC0EE
:100A600069D1882321F30AC08091F1008993015054
:100A70001109FFEFCF1ADF0ADACF80E0DF91CF91C3
:100A80001F910F91FF90EF90DF90CF9008952091EC
:100A9000F9013091FA012617370748F06115710501
:100AA00039F42091E8002E772093E80001C0B901C5
:100AB000FC0120E06115710579F18091F201882334
:100AC000F1F18530F1F18091E80083FD3CC0809127
:100AD000E80082FD2EC08091E80080FFEBCF2091DE
:100AE000F3008091F20090E0922B6115710551F0B6
:100AF0008830910538F421912093F10061507109FB
:100B00000196F3CF21E0089709F020E08091E800FA
:100B10008E778093E800CECF2111CFCF0AC080918D
:100B2000F201882361F0853061F08091E80083FD57
:100B30000AC08091E80082FFF2CF80E0089582E051
:100B4000089583E0089581E008956115710529F401
:100B50002091E8002B772093E800FC0161157105D6
:100B600041F18091F201882361F1853061F180913A
:100B7000E80083FD24C08091E80082FFEFCF209140
:100B8000F3008091F20090E0922B892B31F080915C
:100B9000F10081936150710991F78091E8008B77A2
:100BA0008093E800DBCF8091F201882351F08530FB
:100BB00051F08091E80080FFF6CF80E0089581E059
:100BC000089582E0089583E008952091F90130911D
:100BD000FA012617370748F06115710539F420919D
:100BE000E8002E772093E80001C0B901FC0120E065
:100BF0006115710591F18091F201882309F440C0DB
:100C0000853009F43FC08091E80083FD3DC08091AC
:100C1000E80082FD2FC08091E80080FFE9CF20919D
:100C2000F3008091F20090E0922B6115710559F06C
:100C30008830910540F424912093F1003196615061
:100C400071090196F2CF21E0089709F020E0809128
:100C5000E8008E778093E800CBCF2111CCCF0AC07B
:100C60008091F201882361F0853061F08091E80085
:100C700083FD0AC08091E80082FFF2CF80E00895F2
:100C800082E0089583E0089581E00895982F9730D9
:100C900068F59093E900981739F07091EC00209175
:100CA000ED005091F00003C0242F762F50E021FD7D
:100CB00002C09F5FECCF3091EB003E7F3093EB00A2
:100CC0003091ED003D7F3093ED003091EB003160CD
:100CD0003093EB007093EC002093ED005093F00004
:100CE0002091EE0027FDE5CF80E008958F7080937E
:100CF000E90081E008958091F30187FF11C08091A0
:100D0000E80082FD05C08091F2018111F8CF11C089
:100D10008091E8008B770BC08091F201882349F025
:100D20008091E80080FFF8CF8091E8008E77809373
:100D3000E80008952091E4003091E50095E64091A7
:100D4000EC00842F817040FF23C08091E80080FD7B
:100D50001DC08091F201882399F0853099F080912F
:100D6000EB0085FD11C04091E4005091E50024178F
:100D7000350729F3915011F09A01E1CF84E00895ED
:100D800082E0089583E0089581E0089580E0089569
:100D90004091E80042FFDDCF08950F931F93CF935A
:100DA000DF934BD052D0C8EDD0E088818F77888315
:100DB00088818068888388818F7D888319BC1092A0
:100DC000F2011092EE011092F0011092EF0100EE8C
:100DD00010E0F80180818B7F808388818160888327
:100DE00042E060E080E052DFE1EEF0E080818E7F63
:100DF0008083E2EEF0E08081816080838081886082
:100E00008083F80180818E7F8083888180618883E0
:100E1000DF91CF911F910F910895E8EDF0E080816F
:100E20008F7E8083E7EDF0E080818160808384E0C5
:100E300082BF81E08093F101B0CFE8EDF0E08081E6
:100E40008E7F80831092E20008951092DA00109253
:100E5000E10008951F920F920FB60F9211242F9365
:100E60003F934F935F936F937F938F939F93AF9332
:100E7000BF93EF93FF938091E10082FF0AC08091BE
:100E8000E20082FF06C08091E1008B7F8093E10049
:100E9000F4D18091DA0080FF1DC08091D80080FFDE
:100EA00019C08091DA008E7F8093DA008091D9009A
:100EB00080FF0CC080E189BD82E189BD09B400FEDC
:100EC000FDCF81E08093F201B4DB04C019BC109225
:100ED000F201B0DB8091E10080FF18C08091E20058
:100EE00080FF14C08091E2008E7F8093E2008091A9
:100EF000E20080618093E2008091D800806280935C
:100F0000D80019BC85E08093F201B7D18091E1004F
:100F100084FF2FC08091E20084FF2BC080E189BD57
:100F200082E189BD09B400FEFDCF8091D8008F7D9C
:100F30008093D8008091E1008F7E8093E1008091C2
:100F4000E2008F7E8093E2008091E20081608093D6
:100F5000E2008091EE01882311F084E007C08091C7
:100F6000E30087FD02C081E001C083E08093F201CD
:100F700084D18091E10083FF22C08091E20083FF51
:100F80001EC08091E100877F8093E10082E0809322
:100F9000F2011092EE018091E1008E7F8093E100DA
:100FA0008091E2008E7F8093E2008091E200806178
:100FB0008093E20042E060E080E068DE5ED1FF9175
:100FC000EF91BF91AF919F918F917F916F915F91C1
:100FD0004F913F912F910F900FBE0F901F9018953A
:100FE0001F93CF93DF93CDB7DEB7AA970FB6F894D0
:100FF000DEBF0FBECDBFE3EFF1E08091F100819342
:1010000021E0EB3FF207C9F77BDB8091E80083FF2B
:101010001CC18091F3019091F401492F50E04A30B6
:10102000510508F012C1FA01EA5AFF4F73C1803826
:1010300081F0823809F009C18091F7018F708093A7
:10104000E9008091EB0085FB882780F91092E90088
:1010500006C08091EF019091F00191118260909112
:10106000E800977F9093E8008093F1001092F100E0
:10107000C4C0282F2D7F09F0E8C0882319F08230E2
:1010800061F0E3C08091F501813009F0DEC093305A
:1010900009F080E08093F0012BC08091F50181116F
:1010A00027C08091F7018F7009F4CFC08093E900C9
:1010B0002091EB0020FF1CC0933021F48091EB00C5
:1010C000806214C09091EB0090619093EB0021E05E
:1010D00030E0A90102C0440F551F8A95E2F7409302
:1010E000EA001092EA008091EB0088608093EB00A8
:1010F0001092E9008091E800877F82C08111A5C02D
:101100001091F5011F778091E3008078812B809307
:10111000E3008091E800877F8093E800ECDD809118
:10112000E80080FFFCCF8091E30080688093E300BB
:10113000111102C082E001C083E08093F20185C0FA
:101140008058823008F081C08091F5019091F601BD
:101150008C3D53E0950771F583E08A838AE28983A9
:101160004FB7F894DE01139620E03EE051E2E32F02
:10117000F0E050935700E49120FF03C0E295EF7038
:101180003F5FEF708E2F90E0EA3010F0C79601C0FD
:10119000C0968D939D932F5F243149F74FBF809167
:1011A000E800877F8093E8006AE270E0CE01019654
:1011B0006EDC12C0AE014F5F5F4F6091F70174DBD0
:1011C000BC01892B09F441C09091E800977F90936E
:1011D000E80089819A81F9DC8091E8008B7780931F
:1011E000E80033C0803889F58091E800877F8093DC
:1011F000E8008091EE018093F1008091E8008E7705
:101200008093E80078DD21C081111FC08091F50135
:101210009091F60199270297C4F48091E800877FA6
:101220008093E8008091F5018093EE0164DD809168
:10123000EE01811106C08091E30087FD02C081E0CC
:1012400001C084E08093F201F6D98091E80083FF29
:101250000AC08091E800877F8093E8008091EB00CE
:1012600080628093EB00AA960FB6F894DEBF0FBEA3
:10127000CDBFDF91CF911F9108950895CF938091B5
:10128000F201882399F0C091E900CF709091EC00B1
:10129000892F817090FD80E8C82B1092E900809121
:1012A000E80083FD9DDECF70C093E900CF910895E3
:1012B000680F791F8617970751F0FC012191CF0124
:1012C0003091C80035FFFCCF2093CE00F3CF0895B6
:1012D000A1E21A2EAA1BBB1BFD010DC0AA1FBB1F3A
:1012E000EE1FFF1FA217B307E407F50720F0A21BAC
:1012F000B30BE40BF50B661F771F881F991F1A9419
:1013000069F760957095809590959B01AC01BD0142
:10131000CF010895EE0FFF1F0590F491E02D099481
:1013200009D0A59F900DB49F900DA49F800D911D95
:1013300011240895A29FB001B39FC001A39F700D17
:10134000811D1124911DB29F700D811D1124911DCD
:061350000895F894FFCFA0
:10135600EE00000000000000000000000000000099
:101366000000000000000000000000000000000077
:101376000000050014FFF7FFFFC0FFC0FFC0FFC05D
:0E138600FF0000000000000100836601080067
:00000001FF
